{
  "_format": "hh-sol-artifact-1",
  "contractName": "NFT",
  "sourceName": "contracts/NFT.sol",
  "abi": [
    {
      "inputs": [],
      "stateMutability": "nonpayable",
      "type": "constructor"
    },
    {
      "anonymous": false,
      "inputs": [
        {
          "indexed": true,
          "internalType": "address",
          "name": "owner",
          "type": "address"
        },
        {
          "indexed": true,
          "internalType": "address",
          "name": "approved",
          "type": "address"
        },
        {
          "indexed": true,
          "internalType": "uint256",
          "name": "tokenId",
          "type": "uint256"
        }
      ],
      "name": "Approval",
      "type": "event"
    },
    {
      "anonymous": false,
      "inputs": [
        {
          "indexed": true,
          "internalType": "address",
          "name": "owner",
          "type": "address"
        },
        {
          "indexed": true,
          "internalType": "address",
          "name": "operator",
          "type": "address"
        },
        {
          "indexed": false,
          "internalType": "bool",
          "name": "approved",
          "type": "bool"
        }
      ],
      "name": "ApprovalForAll",
      "type": "event"
    },
    {
      "anonymous": false,
      "inputs": [
        {
          "indexed": true,
          "internalType": "address",
          "name": "previousOwner",
          "type": "address"
        },
        {
          "indexed": true,
          "internalType": "address",
          "name": "newOwner",
          "type": "address"
        }
      ],
      "name": "OwnershipTransferred",
      "type": "event"
    },
    {
      "anonymous": false,
      "inputs": [
        {
          "indexed": true,
          "internalType": "address",
          "name": "_to",
          "type": "address"
        },
        {
          "indexed": false,
          "internalType": "uint256[6]",
          "name": "_tokenIds",
          "type": "uint256[6]"
        }
      ],
      "name": "SetMinted",
      "type": "event"
    },
    {
      "anonymous": false,
      "inputs": [
        {
          "indexed": true,
          "internalType": "address",
          "name": "from",
          "type": "address"
        },
        {
          "indexed": true,
          "internalType": "address",
          "name": "to",
          "type": "address"
        },
        {
          "indexed": true,
          "internalType": "uint256",
          "name": "tokenId",
          "type": "uint256"
        }
      ],
      "name": "Transfer",
      "type": "event"
    },
    {
      "inputs": [],
      "name": "MAX_SUPPLY",
      "outputs": [
        {
          "internalType": "uint256",
          "name": "",
          "type": "uint256"
        }
      ],
      "stateMutability": "view",
      "type": "function"
    },
    {
      "inputs": [
        {
          "internalType": "address",
          "name": "to",
          "type": "address"
        },
        {
          "internalType": "uint256",
          "name": "tokenId",
          "type": "uint256"
        }
      ],
      "name": "approve",
      "outputs": [],
      "stateMutability": "nonpayable",
      "type": "function"
    },
    {
      "inputs": [
        {
          "internalType": "address",
          "name": "owner",
          "type": "address"
        }
      ],
      "name": "balanceOf",
      "outputs": [
        {
          "internalType": "uint256",
          "name": "",
          "type": "uint256"
        }
      ],
      "stateMutability": "view",
      "type": "function"
    },
    {
      "inputs": [
        {
          "internalType": "uint256",
          "name": "tokenId",
          "type": "uint256"
        }
      ],
      "name": "getApproved",
      "outputs": [
        {
          "internalType": "address",
          "name": "",
          "type": "address"
        }
      ],
      "stateMutability": "view",
      "type": "function"
    },
    {
      "inputs": [
        {
          "internalType": "address",
          "name": "owner",
          "type": "address"
        },
        {
          "internalType": "address",
          "name": "operator",
          "type": "address"
        }
      ],
      "name": "isApprovedForAll",
      "outputs": [
        {
          "internalType": "bool",
          "name": "",
          "type": "bool"
        }
      ],
      "stateMutability": "view",
      "type": "function"
    },
    {
      "inputs": [
        {
          "internalType": "uint256",
          "name": "_quantity",
          "type": "uint256"
        }
      ],
      "name": "mint",
      "outputs": [],
      "stateMutability": "payable",
      "type": "function"
    },
    {
      "inputs": [],
      "name": "mintSet",
      "outputs": [],
      "stateMutability": "payable",
      "type": "function"
    },
    {
      "inputs": [],
      "name": "name",
      "outputs": [
        {
          "internalType": "string",
          "name": "",
          "type": "string"
        }
      ],
      "stateMutability": "view",
      "type": "function"
    },
    {
      "inputs": [],
      "name": "owner",
      "outputs": [
        {
          "internalType": "address",
          "name": "",
          "type": "address"
        }
      ],
      "stateMutability": "view",
      "type": "function"
    },
    {
      "inputs": [
        {
          "internalType": "uint256",
          "name": "tokenId",
          "type": "uint256"
        }
      ],
      "name": "ownerOf",
      "outputs": [
        {
          "internalType": "address",
          "name": "",
          "type": "address"
        }
      ],
      "stateMutability": "view",
      "type": "function"
    },
    {
      "inputs": [],
      "name": "renounceOwnership",
      "outputs": [],
      "stateMutability": "nonpayable",
      "type": "function"
    },
    {
      "inputs": [
        {
          "internalType": "address",
          "name": "from",
          "type": "address"
        },
        {
          "internalType": "address",
          "name": "to",
          "type": "address"
        },
        {
          "internalType": "uint256",
          "name": "tokenId",
          "type": "uint256"
        }
      ],
      "name": "safeTransferFrom",
      "outputs": [],
      "stateMutability": "nonpayable",
      "type": "function"
    },
    {
      "inputs": [
        {
          "internalType": "address",
          "name": "from",
          "type": "address"
        },
        {
          "internalType": "address",
          "name": "to",
          "type": "address"
        },
        {
          "internalType": "uint256",
          "name": "tokenId",
          "type": "uint256"
        },
        {
          "internalType": "bytes",
          "name": "data",
          "type": "bytes"
        }
      ],
      "name": "safeTransferFrom",
      "outputs": [],
      "stateMutability": "nonpayable",
      "type": "function"
    },
    {
      "inputs": [
        {
          "internalType": "address",
          "name": "operator",
          "type": "address"
        },
        {
          "internalType": "bool",
          "name": "approved",
          "type": "bool"
        }
      ],
      "name": "setApprovalForAll",
      "outputs": [],
      "stateMutability": "nonpayable",
      "type": "function"
    },
    {
      "inputs": [
        {
          "internalType": "uint256",
          "name": "_quantity",
          "type": "uint256"
        },
        {
          "internalType": "bytes",
          "name": "_signature",
          "type": "bytes"
        },
        {
          "internalType": "bytes32",
          "name": "_nonce",
          "type": "bytes32"
        }
      ],
      "name": "signedMint",
      "outputs": [],
      "stateMutability": "nonpayable",
      "type": "function"
    },
    {
      "inputs": [
        {
          "internalType": "bytes4",
          "name": "interfaceId",
          "type": "bytes4"
        }
      ],
      "name": "supportsInterface",
      "outputs": [
        {
          "internalType": "bool",
          "name": "",
          "type": "bool"
        }
      ],
      "stateMutability": "view",
      "type": "function"
    },
    {
      "inputs": [],
      "name": "symbol",
      "outputs": [
        {
          "internalType": "string",
          "name": "",
          "type": "string"
        }
      ],
      "stateMutability": "view",
      "type": "function"
    },
    {
      "inputs": [
        {
          "internalType": "uint256",
          "name": "tokenId",
          "type": "uint256"
        }
      ],
      "name": "tokenURI",
      "outputs": [
        {
          "internalType": "string",
          "name": "",
          "type": "string"
        }
      ],
      "stateMutability": "view",
      "type": "function"
    },
    {
      "inputs": [],
      "name": "totalSupply",
      "outputs": [
        {
          "internalType": "uint256",
          "name": "",
          "type": "uint256"
        }
      ],
      "stateMutability": "view",
      "type": "function"
    },
    {
      "inputs": [
        {
          "internalType": "address",
          "name": "from",
          "type": "address"
        },
        {
          "internalType": "address",
          "name": "to",
          "type": "address"
        },
        {
          "internalType": "uint256",
          "name": "tokenId",
          "type": "uint256"
        }
      ],
      "name": "transferFrom",
      "outputs": [],
      "stateMutability": "nonpayable",
      "type": "function"
    },
    {
      "inputs": [
        {
          "internalType": "address",
          "name": "newOwner",
          "type": "address"
        }
      ],
      "name": "transferOwnership",
      "outputs": [],
      "stateMutability": "nonpayable",
      "type": "function"
    },
    {
      "inputs": [],
      "name": "withdraw",
      "outputs": [],
      "stateMutability": "nonpayable",
      "type": "function"
    }
  ],
  "bytecode": "0x60806040526000600860006101000a81548160ff0219169083151502179055503480156200002c57600080fd5b506040518060400160405280600781526020017f4d79546f6b656e000000000000000000000000000000000000000000000000008152506040518060400160405280600381526020017f4d544b00000000000000000000000000000000000000000000000000000000008152508160009081620000aa91906200042d565b508060019081620000bc91906200042d565b505050620000df620000d3620000e560201b60201c565b620000ed60201b60201c565b62000514565b600033905090565b6000600660009054906101000a900473ffffffffffffffffffffffffffffffffffffffff16905081600660006101000a81548173ffffffffffffffffffffffffffffffffffffffff021916908373ffffffffffffffffffffffffffffffffffffffff1602179055508173ffffffffffffffffffffffffffffffffffffffff168173ffffffffffffffffffffffffffffffffffffffff167f8be0079c531659141344cd1fd0a4f28419497f9722a3daafe3b4186f6b6457e060405160405180910390a35050565b600081519050919050565b7f4e487b7100000000000000000000000000000000000000000000000000000000600052604160045260246000fd5b7f4e487b7100000000000000000000000000000000000000000000000000000000600052602260045260246000fd5b600060028204905060018216806200023557607f821691505b6020821081036200024b576200024a620001ed565b5b50919050565b60008190508160005260206000209050919050565b60006020601f8301049050919050565b600082821b905092915050565b600060088302620002b57fffffffffffffffffffffffffffffffffffffffffffffffffffffffffffffffff8262000276565b620002c1868362000276565b95508019841693508086168417925050509392505050565b6000819050919050565b6000819050919050565b60006200030e620003086200030284620002d9565b620002e3565b620002d9565b9050919050565b6000819050919050565b6200032a83620002ed565b62000342620003398262000315565b84845462000283565b825550505050565b600090565b620003596200034a565b620003668184846200031f565b505050565b5b818110156200038e57620003826000826200034f565b6001810190506200036c565b5050565b601f821115620003dd57620003a78162000251565b620003b28462000266565b81016020851015620003c2578190505b620003da620003d18562000266565b8301826200036b565b50505b505050565b600082821c905092915050565b60006200040260001984600802620003e2565b1980831691505092915050565b60006200041d8383620003ef565b9150826002028217905092915050565b6200043882620001b3565b67ffffffffffffffff811115620004545762000453620001be565b5b6200046082546200021c565b6200046d82828562000392565b600060209050601f831160018114620004a5576000841562000490578287015190505b6200049c85826200040f565b8655506200050c565b601f198416620004b58662000251565b60005b82811015620004df57848901518255600182019150602085019450602081019050620004b8565b86831015620004ff5784890151620004fb601f891682620003ef565b8355505b6001600288020188555050505b505050505050565b613ec780620005246000396000f3fe6080604052600436106101355760003560e01c8063715018a6116100ab578063b7c0ec7a1161006f578063b7c0ec7a146103f3578063b88d4fde1461041c578063c87b56dd14610445578063e763b01714610482578063e985e9c51461048c578063f2fde38b146104c957610135565b8063715018a6146103415780638da5cb5b1461035857806395d89b4114610383578063a0712d68146103ae578063a22cb465146103ca57610135565b806323b872dd116100fd57806323b872dd1461023357806332cb6b0c1461025c5780633ccfd60b1461028757806342842e0e1461029e5780636352211e146102c757806370a082311461030457610135565b806301ffc9a71461013a57806306fdde0314610177578063081812fc146101a2578063095ea7b3146101df57806318160ddd14610208575b600080fd5b34801561014657600080fd5b50610161600480360381019061015c919061262b565b6104f2565b60405161016e9190612673565b60405180910390f35b34801561018357600080fd5b5061018c6105d4565b604051610199919061271e565b60405180910390f35b3480156101ae57600080fd5b506101c960048036038101906101c49190612776565b610666565b6040516101d691906127e4565b60405180910390f35b3480156101eb57600080fd5b506102066004803603810190610201919061282b565b6106ac565b005b34801561021457600080fd5b5061021d6107c3565b60405161022a919061287a565b60405180910390f35b34801561023f57600080fd5b5061025a60048036038101906102559190612895565b6107d4565b005b34801561026857600080fd5b50610271610834565b60405161027e919061287a565b60405180910390f35b34801561029357600080fd5b5061029c61083a565b005b3480156102aa57600080fd5b506102c560048036038101906102c09190612895565b6108f8565b005b3480156102d357600080fd5b506102ee60048036038101906102e99190612776565b610918565b6040516102fb91906127e4565b60405180910390f35b34801561031057600080fd5b5061032b600480360381019061032691906128e8565b61099e565b604051610338919061287a565b60405180910390f35b34801561034d57600080fd5b50610356610a55565b005b34801561036457600080fd5b5061036d610a69565b60405161037a91906127e4565b60405180910390f35b34801561038f57600080fd5b50610398610a93565b6040516103a5919061271e565b60405180910390f35b6103c860048036038101906103c39190612776565b610b25565b005b3480156103d657600080fd5b506103f160048036038101906103ec9190612941565b610c83565b005b3480156103ff57600080fd5b5061041a60048036038101906104159190612a1c565b610c99565b005b34801561042857600080fd5b50610443600480360381019061043e9190612bc0565b610f50565b005b34801561045157600080fd5b5061046c60048036038101906104679190612776565b610fb2565b604051610479919061271e565b60405180910390f35b61048a61101a565b005b34801561049857600080fd5b506104b360048036038101906104ae9190612c43565b611208565b6040516104c09190612673565b60405180910390f35b3480156104d557600080fd5b506104f060048036038101906104eb91906128e8565b61129c565b005b60007f80ac58cd000000000000000000000000000000000000000000000000000000007bffffffffffffffffffffffffffffffffffffffffffffffffffffffff1916827bffffffffffffffffffffffffffffffffffffffffffffffffffffffff191614806105bd57507f5b5e139f000000000000000000000000000000000000000000000000000000007bffffffffffffffffffffffffffffffffffffffffffffffffffffffff1916827bffffffffffffffffffffffffffffffffffffffffffffffffffffffff1916145b806105cd57506105cc8261131f565b5b9050919050565b6060600080546105e390612cb2565b80601f016020809104026020016040519081016040528092919081815260200182805461060f90612cb2565b801561065c5780601f106106315761010080835404028352916020019161065c565b820191906000526020600020905b81548152906001019060200180831161063f57829003601f168201915b5050505050905090565b600061067182611389565b6004600083815260200190815260200160002060009054906101000a900473ffffffffffffffffffffffffffffffffffffffff169050919050565b60006106b782610918565b90508073ffffffffffffffffffffffffffffffffffffffff168373ffffffffffffffffffffffffffffffffffffffff1603610727576040517f08c379a000000000000000000000000000000000000000000000000000000000815260040161071e90612d55565b60405180910390fd5b8073ffffffffffffffffffffffffffffffffffffffff166107466113d4565b73ffffffffffffffffffffffffffffffffffffffff16148061077557506107748161076f6113d4565b611208565b5b6107b4576040517f08c379a00000000000000000000000000000000000000000000000000000000081526004016107ab90612de7565b60405180910390fd5b6107be83836113dc565b505050565b60006107cf6007611495565b905090565b6107e56107df6113d4565b826114a3565b610824576040517f08c379a000000000000000000000000000000000000000000000000000000000815260040161081b90612e79565b60405180910390fd5b61082f838383611538565b505050565b6103e881565b610842611831565b600061084c610a69565b73ffffffffffffffffffffffffffffffffffffffff164760405161086f90612eca565b60006040518083038185875af1925050503d80600081146108ac576040519150601f19603f3d011682016040523d82523d6000602084013e6108b1565b606091505b50509050806108f5576040517f08c379a00000000000000000000000000000000000000000000000000000000081526004016108ec90612f2b565b60405180910390fd5b50565b61091383838360405180602001604052806000815250610f50565b505050565b600080610924836118af565b9050600073ffffffffffffffffffffffffffffffffffffffff168173ffffffffffffffffffffffffffffffffffffffff1603610995576040517f08c379a000000000000000000000000000000000000000000000000000000000815260040161098c90612f97565b60405180910390fd5b80915050919050565b60008073ffffffffffffffffffffffffffffffffffffffff168273ffffffffffffffffffffffffffffffffffffffff1603610a0e576040517f08c379a0000000000000000000000000000000000000000000000000000000008152600401610a0590613029565b60405180910390fd5b600360008373ffffffffffffffffffffffffffffffffffffffff1673ffffffffffffffffffffffffffffffffffffffff168152602001908152602001600020549050919050565b610a5d611831565b610a6760006118ec565b565b6000600660009054906101000a900473ffffffffffffffffffffffffffffffffffffffff16905090565b606060018054610aa290612cb2565b80601f0160208091040260200160405190810160405280929190818152602001828054610ace90612cb2565b8015610b1b5780601f10610af057610100808354040283529160200191610b1b565b820191906000526020600020905b815481529060010190602001808311610afe57829003601f168201915b5050505050905090565b600860009054906101000a900460ff1615610b75576040517f08c379a0000000000000000000000000000000000000000000000000000000008152600401610b6c90613095565b60405180910390fd5b6001600860006101000a81548160ff0219169083151502179055506000339050600082118015610ba6575060038211155b8015610bc65750600682610bb98361099e565b610bc391906130e4565b11155b610c05576040517f08c379a0000000000000000000000000000000000000000000000000000000008152600401610bfc90613164565b60405180910390fd5b81662386f26fc10000610c189190613184565b341015610c5a576040517f08c379a0000000000000000000000000000000000000000000000000000000008152600401610c5190613212565b60405180910390fd5b610c6481836119b2565b506000600860006101000a81548160ff02191690831515021790555050565b610c95610c8e6113d4565b8383611a3a565b5050565b600860009054906101000a900460ff1615610ce9576040517f08c379a0000000000000000000000000000000000000000000000000000000008152600401610ce090613095565b60405180910390fd5b6001600860006101000a81548160ff02191690831515021790555060003390506000858284604051602001610d20939291906132bc565b6040516020818303038152906040528051906020012090506009600082815260200190815260200160002060009054906101000a900460ff1615610d99576040517f08c379a0000000000000000000000000000000000000000000000000000000008152600401610d9090613345565b60405180910390fd5b6000610e0f82604051602001610daf91906133bc565b6040516020818303038152906040528051906020012087878080601f016020809104026020016040519081016040528093929190818152602001838380828437600081840152601f19601f82011690508083019250505050505050611ba6565b9050610e19610a69565b73ffffffffffffffffffffffffffffffffffffffff168173ffffffffffffffffffffffffffffffffffffffff1614610e86576040517f08c379a0000000000000000000000000000000000000000000000000000000008152600401610e7d9061342e565b60405180910390fd5b60016009600084815260200190815260200160002060006101000a81548160ff021916908315150217905550600087118015610ec3575060038711155b8015610ee35750600687610ed68561099e565b610ee091906130e4565b11155b610f22576040517f08c379a0000000000000000000000000000000000000000000000000000000008152600401610f1990613164565b60405180910390fd5b610f2c83886119b2565b5050506000600860006101000a81548160ff02191690831515021790555050505050565b610f61610f5b6113d4565b836114a3565b610fa0576040517f08c379a0000000000000000000000000000000000000000000000000000000008152600401610f9790612e79565b60405180910390fd5b610fac84848484611bcd565b50505050565b6060610fbd82611389565b6000610fc7611c29565b90506000815111610fe75760405180602001604052806000815250611012565b80610ff184611c40565b60405160200161100292919061347f565b6040516020818303038152906040525b915050919050565b600860009054906101000a900460ff161561106a576040517f08c379a000000000000000000000000000000000000000000000000000000000815260040161106190613095565b60405180910390fd5b6001600860006101000a81548160ff021916908315150217905550600033905061109261259d565b600061109d8361099e565b146110dd576040517f08c379a00000000000000000000000000000000000000000000000000000000081526004016110d490613515565b60405180910390fd5b66470de4df820000341015611127576040517f08c379a000000000000000000000000000000000000000000000000000000000815260040161111e90613581565b60405180910390fd5b6111328260036119b2565b61113d8260036119b2565b6000600190505b6006811161119a57806111576007611495565b61116191906135a1565b8260018361116f91906135a1565b600681106111805761117f6135d5565b5b6020020181815250508061119390613604565b9050611144565b508173ffffffffffffffffffffffffffffffffffffffff167f99921c0ceb7050feb9c686fac186ef51317248f9e9c5d4478666e021f9500090826040516111e191906136f7565b60405180910390a250506000600860006101000a81548160ff021916908315150217905550565b6000600560008473ffffffffffffffffffffffffffffffffffffffff1673ffffffffffffffffffffffffffffffffffffffff16815260200190815260200160002060008373ffffffffffffffffffffffffffffffffffffffff1673ffffffffffffffffffffffffffffffffffffffff16815260200190815260200160002060009054906101000a900460ff16905092915050565b6112a4611831565b600073ffffffffffffffffffffffffffffffffffffffff168173ffffffffffffffffffffffffffffffffffffffff1603611313576040517f08c379a000000000000000000000000000000000000000000000000000000000815260040161130a90613784565b60405180910390fd5b61131c816118ec565b50565b60007f01ffc9a7000000000000000000000000000000000000000000000000000000007bffffffffffffffffffffffffffffffffffffffffffffffffffffffff1916827bffffffffffffffffffffffffffffffffffffffffffffffffffffffff1916149050919050565b61139281611d0e565b6113d1576040517f08c379a00000000000000000000000000000000000000000000000000000000081526004016113c890612f97565b60405180910390fd5b50565b600033905090565b816004600083815260200190815260200160002060006101000a81548173ffffffffffffffffffffffffffffffffffffffff021916908373ffffffffffffffffffffffffffffffffffffffff160217905550808273ffffffffffffffffffffffffffffffffffffffff1661144f83610918565b73ffffffffffffffffffffffffffffffffffffffff167f8c5be1e5ebec7d5bd14f71427d1e84f3dd0314c0f7b2291e5b200ac8c7c3b92560405160405180910390a45050565b600081600001549050919050565b6000806114af83610918565b90508073ffffffffffffffffffffffffffffffffffffffff168473ffffffffffffffffffffffffffffffffffffffff1614806114f157506114f08185611208565b5b8061152f57508373ffffffffffffffffffffffffffffffffffffffff1661151784610666565b73ffffffffffffffffffffffffffffffffffffffff16145b91505092915050565b8273ffffffffffffffffffffffffffffffffffffffff1661155882610918565b73ffffffffffffffffffffffffffffffffffffffff16146115ae576040517f08c379a00000000000000000000000000000000000000000000000000000000081526004016115a590613816565b60405180910390fd5b600073ffffffffffffffffffffffffffffffffffffffff168273ffffffffffffffffffffffffffffffffffffffff160361161d576040517f08c379a0000000000000000000000000000000000000000000000000000000008152600401611614906138a8565b60405180910390fd5b61162a8383836001611d4f565b8273ffffffffffffffffffffffffffffffffffffffff1661164a82610918565b73ffffffffffffffffffffffffffffffffffffffff16146116a0576040517f08c379a000000000000000000000000000000000000000000000000000000000815260040161169790613816565b60405180910390fd5b6004600082815260200190815260200160002060006101000a81549073ffffffffffffffffffffffffffffffffffffffff02191690556001600360008573ffffffffffffffffffffffffffffffffffffffff1673ffffffffffffffffffffffffffffffffffffffff168152602001908152602001600020600082825403925050819055506001600360008473ffffffffffffffffffffffffffffffffffffffff1673ffffffffffffffffffffffffffffffffffffffff16815260200190815260200160002060008282540192505081905550816002600083815260200190815260200160002060006101000a81548173ffffffffffffffffffffffffffffffffffffffff021916908373ffffffffffffffffffffffffffffffffffffffff160217905550808273ffffffffffffffffffffffffffffffffffffffff168473ffffffffffffffffffffffffffffffffffffffff167fddf252ad1be2c89b69c2b068fc378daa952ba7f163c4a11628f55a4df523b3ef60405160405180910390a461182c8383836001611d55565b505050565b6118396113d4565b73ffffffffffffffffffffffffffffffffffffffff16611857610a69565b73ffffffffffffffffffffffffffffffffffffffff16146118ad576040517f08c379a00000000000000000000000000000000000000000000000000000000081526004016118a490613914565b60405180910390fd5b565b60006002600083815260200190815260200160002060009054906101000a900473ffffffffffffffffffffffffffffffffffffffff169050919050565b6000600660009054906101000a900473ffffffffffffffffffffffffffffffffffffffff16905081600660006101000a81548173ffffffffffffffffffffffffffffffffffffffff021916908373ffffffffffffffffffffffffffffffffffffffff1602179055508173ffffffffffffffffffffffffffffffffffffffff168173ffffffffffffffffffffffffffffffffffffffff167f8be0079c531659141344cd1fd0a4f28419497f9722a3daafe3b4186f6b6457e060405160405180910390a35050565b6103e86119bf6007611495565b82011115611a02576040517f08c379a00000000000000000000000000000000000000000000000000000000081526004016119f990613980565b60405180910390fd5b60005b81811015611a3557611a2083611a1b6007611495565b611d5b565b611a2a6007611d79565b806001019050611a05565b505050565b8173ffffffffffffffffffffffffffffffffffffffff168373ffffffffffffffffffffffffffffffffffffffff1603611aa8576040517f08c379a0000000000000000000000000000000000000000000000000000000008152600401611a9f906139ec565b60405180910390fd5b80600560008573ffffffffffffffffffffffffffffffffffffffff1673ffffffffffffffffffffffffffffffffffffffff16815260200190815260200160002060008473ffffffffffffffffffffffffffffffffffffffff1673ffffffffffffffffffffffffffffffffffffffff16815260200190815260200160002060006101000a81548160ff0219169083151502179055508173ffffffffffffffffffffffffffffffffffffffff168373ffffffffffffffffffffffffffffffffffffffff167f17307eab39ab6107e8899845ad3d59bd9653f200f220920489ca2b5937696c3183604051611b999190612673565b60405180910390a3505050565b6000806000611bb58585611d8f565b91509150611bc281611de0565b819250505092915050565b611bd8848484611538565b611be484848484611f46565b611c23576040517f08c379a0000000000000000000000000000000000000000000000000000000008152600401611c1a90613a7e565b60405180910390fd5b50505050565b606060405180602001604052806000815250905090565b606060006001611c4f846120cd565b01905060008167ffffffffffffffff811115611c6e57611c6d612a95565b5b6040519080825280601f01601f191660200182016040528015611ca05781602001600182028036833780820191505090505b509050600082602001820190505b600115611d03578080600190039150507f3031323334353637383961626364656600000000000000000000000000000000600a86061a8153600a8581611cf757611cf6613a9e565b5b04945060008503611cae575b819350505050919050565b60008073ffffffffffffffffffffffffffffffffffffffff16611d30836118af565b73ffffffffffffffffffffffffffffffffffffffff1614159050919050565b50505050565b50505050565b611d75828260405180602001604052806000815250612220565b5050565b6001816000016000828254019250508190555050565b6000806041835103611dd05760008060006020860151925060408601519150606086015160001a9050611dc48782858561227b565b94509450505050611dd9565b60006002915091505b9250929050565b60006004811115611df457611df3613acd565b5b816004811115611e0757611e06613acd565b5b0315611f435760016004811115611e2157611e20613acd565b5b816004811115611e3457611e33613acd565b5b03611e74576040517f08c379a0000000000000000000000000000000000000000000000000000000008152600401611e6b90613b48565b60405180910390fd5b60026004811115611e8857611e87613acd565b5b816004811115611e9b57611e9a613acd565b5b03611edb576040517f08c379a0000000000000000000000000000000000000000000000000000000008152600401611ed290613bb4565b60405180910390fd5b60036004811115611eef57611eee613acd565b5b816004811115611f0257611f01613acd565b5b03611f42576040517f08c379a0000000000000000000000000000000000000000000000000000000008152600401611f3990613c46565b60405180910390fd5b5b50565b6000611f678473ffffffffffffffffffffffffffffffffffffffff1661235d565b156120c0578373ffffffffffffffffffffffffffffffffffffffff1663150b7a02611f906113d4565b8786866040518563ffffffff1660e01b8152600401611fb29493929190613cbb565b6020604051808303816000875af1925050508015611fee57506040513d601f19601f82011682018060405250810190611feb9190613d1c565b60015b612070573d806000811461201e576040519150601f19603f3d011682016040523d82523d6000602084013e612023565b606091505b506000815103612068576040517f08c379a000000000000000000000000000000000000000000000000000000000815260040161205f90613a7e565b60405180910390fd5b805181602001fd5b63150b7a0260e01b7bffffffffffffffffffffffffffffffffffffffffffffffffffffffff1916817bffffffffffffffffffffffffffffffffffffffffffffffffffffffff1916149150506120c5565b600190505b949350505050565b600080600090507a184f03e93ff9f4daa797ed6e38ed64bf6a1f010000000000000000831061212b577a184f03e93ff9f4daa797ed6e38ed64bf6a1f010000000000000000838161212157612120613a9e565b5b0492506040810190505b6d04ee2d6d415b85acef81000000008310612168576d04ee2d6d415b85acef8100000000838161215e5761215d613a9e565b5b0492506020810190505b662386f26fc10000831061219757662386f26fc10000838161218d5761218c613a9e565b5b0492506010810190505b6305f5e10083106121c0576305f5e10083816121b6576121b5613a9e565b5b0492506008810190505b61271083106121e55761271083816121db576121da613a9e565b5b0492506004810190505b6064831061220857606483816121fe576121fd613a9e565b5b0492506002810190505b600a8310612217576001810190505b80915050919050565b61222a8383612380565b6122376000848484611f46565b612276576040517f08c379a000000000000000000000000000000000000000000000000000000000815260040161226d90613a7e565b60405180910390fd5b505050565b6000807f7fffffffffffffffffffffffffffffff5d576e7357a4501ddfe92f46681b20a08360001c11156122b6576000600391509150612354565b6000600187878787604051600081526020016040526040516122db9493929190613d74565b6020604051602081039080840390855afa1580156122fd573d6000803e3d6000fd5b505050602060405103519050600073ffffffffffffffffffffffffffffffffffffffff168173ffffffffffffffffffffffffffffffffffffffff160361234b57600060019250925050612354565b80600092509250505b94509492505050565b6000808273ffffffffffffffffffffffffffffffffffffffff163b119050919050565b600073ffffffffffffffffffffffffffffffffffffffff168273ffffffffffffffffffffffffffffffffffffffff16036123ef576040517f08c379a00000000000000000000000000000000000000000000000000000000081526004016123e690613e05565b60405180910390fd5b6123f881611d0e565b15612438576040517f08c379a000000000000000000000000000000000000000000000000000000000815260040161242f90613e71565b60405180910390fd5b612446600083836001611d4f565b61244f81611d0e565b1561248f576040517f08c379a000000000000000000000000000000000000000000000000000000000815260040161248690613e71565b60405180910390fd5b6001600360008473ffffffffffffffffffffffffffffffffffffffff1673ffffffffffffffffffffffffffffffffffffffff16815260200190815260200160002060008282540192505081905550816002600083815260200190815260200160002060006101000a81548173ffffffffffffffffffffffffffffffffffffffff021916908373ffffffffffffffffffffffffffffffffffffffff160217905550808273ffffffffffffffffffffffffffffffffffffffff16600073ffffffffffffffffffffffffffffffffffffffff167fddf252ad1be2c89b69c2b068fc378daa952ba7f163c4a11628f55a4df523b3ef60405160405180910390a4612599600083836001611d55565b5050565b6040518060c00160405280600690602082028036833780820191505090505090565b6000604051905090565b600080fd5b600080fd5b60007fffffffff0000000000000000000000000000000000000000000000000000000082169050919050565b612608816125d3565b811461261357600080fd5b50565b600081359050612625816125ff565b92915050565b600060208284031215612641576126406125c9565b5b600061264f84828501612616565b91505092915050565b60008115159050919050565b61266d81612658565b82525050565b60006020820190506126886000830184612664565b92915050565b600081519050919050565b600082825260208201905092915050565b60005b838110156126c85780820151818401526020810190506126ad565b60008484015250505050565b6000601f19601f8301169050919050565b60006126f08261268e565b6126fa8185612699565b935061270a8185602086016126aa565b612713816126d4565b840191505092915050565b6000602082019050818103600083015261273881846126e5565b905092915050565b6000819050919050565b61275381612740565b811461275e57600080fd5b50565b6000813590506127708161274a565b92915050565b60006020828403121561278c5761278b6125c9565b5b600061279a84828501612761565b91505092915050565b600073ffffffffffffffffffffffffffffffffffffffff82169050919050565b60006127ce826127a3565b9050919050565b6127de816127c3565b82525050565b60006020820190506127f960008301846127d5565b92915050565b612808816127c3565b811461281357600080fd5b50565b600081359050612825816127ff565b92915050565b60008060408385031215612842576128416125c9565b5b600061285085828601612816565b925050602061286185828601612761565b9150509250929050565b61287481612740565b82525050565b600060208201905061288f600083018461286b565b92915050565b6000806000606084860312156128ae576128ad6125c9565b5b60006128bc86828701612816565b93505060206128cd86828701612816565b92505060406128de86828701612761565b9150509250925092565b6000602082840312156128fe576128fd6125c9565b5b600061290c84828501612816565b91505092915050565b61291e81612658565b811461292957600080fd5b50565b60008135905061293b81612915565b92915050565b60008060408385031215612958576129576125c9565b5b600061296685828601612816565b92505060206129778582860161292c565b9150509250929050565b600080fd5b600080fd5b600080fd5b60008083601f8401126129a6576129a5612981565b5b8235905067ffffffffffffffff8111156129c3576129c2612986565b5b6020830191508360018202830111156129df576129de61298b565b5b9250929050565b6000819050919050565b6129f9816129e6565b8114612a0457600080fd5b50565b600081359050612a16816129f0565b92915050565b60008060008060608587031215612a3657612a356125c9565b5b6000612a4487828801612761565b945050602085013567ffffffffffffffff811115612a6557612a646125ce565b5b612a7187828801612990565b93509350506040612a8487828801612a07565b91505092959194509250565b600080fd5b7f4e487b7100000000000000000000000000000000000000000000000000000000600052604160045260246000fd5b612acd826126d4565b810181811067ffffffffffffffff82111715612aec57612aeb612a95565b5b80604052505050565b6000612aff6125bf565b9050612b0b8282612ac4565b919050565b600067ffffffffffffffff821115612b2b57612b2a612a95565b5b612b34826126d4565b9050602081019050919050565b82818337600083830152505050565b6000612b63612b5e84612b10565b612af5565b905082815260208101848484011115612b7f57612b7e612a90565b5b612b8a848285612b41565b509392505050565b600082601f830112612ba757612ba6612981565b5b8135612bb7848260208601612b50565b91505092915050565b60008060008060808587031215612bda57612bd96125c9565b5b6000612be887828801612816565b9450506020612bf987828801612816565b9350506040612c0a87828801612761565b925050606085013567ffffffffffffffff811115612c2b57612c2a6125ce565b5b612c3787828801612b92565b91505092959194509250565b60008060408385031215612c5a57612c596125c9565b5b6000612c6885828601612816565b9250506020612c7985828601612816565b9150509250929050565b7f4e487b7100000000000000000000000000000000000000000000000000000000600052602260045260246000fd5b60006002820490506001821680612cca57607f821691505b602082108103612cdd57612cdc612c83565b5b50919050565b7f4552433732313a20617070726f76616c20746f2063757272656e74206f776e6560008201527f7200000000000000000000000000000000000000000000000000000000000000602082015250565b6000612d3f602183612699565b9150612d4a82612ce3565b604082019050919050565b60006020820190508181036000830152612d6e81612d32565b9050919050565b7f4552433732313a20617070726f76652063616c6c6572206973206e6f7420746f60008201527f6b656e206f776e6572206f7220617070726f76656420666f7220616c6c000000602082015250565b6000612dd1603d83612699565b9150612ddc82612d75565b604082019050919050565b60006020820190508181036000830152612e0081612dc4565b9050919050565b7f4552433732313a2063616c6c6572206973206e6f7420746f6b656e206f776e6560008201527f72206f7220617070726f76656400000000000000000000000000000000000000602082015250565b6000612e63602d83612699565b9150612e6e82612e07565b604082019050919050565b60006020820190508181036000830152612e9281612e56565b9050919050565b600081905092915050565b50565b6000612eb4600083612e99565b9150612ebf82612ea4565b600082019050919050565b6000612ed582612ea7565b9150819050919050565b7f4661696c656420746f2077697468647261772045746865722e00000000000000600082015250565b6000612f15601983612699565b9150612f2082612edf565b602082019050919050565b60006020820190508181036000830152612f4481612f08565b9050919050565b7f4552433732313a20696e76616c696420746f6b656e2049440000000000000000600082015250565b6000612f81601883612699565b9150612f8c82612f4b565b602082019050919050565b60006020820190508181036000830152612fb081612f74565b9050919050565b7f4552433732313a2061646472657373207a65726f206973206e6f74206120766160008201527f6c6964206f776e65720000000000000000000000000000000000000000000000602082015250565b6000613013602983612699565b915061301e82612fb7565b604082019050919050565b6000602082019050818103600083015261304281613006565b9050919050565b7f4e6f2072652d656e7472616e742063616c6c2e00000000000000000000000000600082015250565b600061307f601383612699565b915061308a82613049565b602082019050919050565b600060208201905081810360008301526130ae81613072565b9050919050565b7f4e487b7100000000000000000000000000000000000000000000000000000000600052601160045260246000fd5b60006130ef82612740565b91506130fa83612740565b9250828201905080821115613112576131116130b5565b5b92915050565b7f496e76616c6964206d696e74207175616e746974792e00000000000000000000600082015250565b600061314e601683612699565b915061315982613118565b602082019050919050565b6000602082019050818103600083015261317d81613141565b9050919050565b600061318f82612740565b915061319a83612740565b92508282026131a881612740565b915082820484148315176131bf576131be6130b5565b5b5092915050565b7f496e636f7272656374207061796d656e7420616d6f756e742e00000000000000600082015250565b60006131fc601983612699565b9150613207826131c6565b602082019050919050565b6000602082019050818103600083015261322b816131ef565b9050919050565b6000819050919050565b61324d61324882612740565b613232565b82525050565b60008160601b9050919050565b600061326b82613253565b9050919050565b600061327d82613260565b9050919050565b613295613290826127c3565b613272565b82525050565b6000819050919050565b6132b66132b1826129e6565b61329b565b82525050565b60006132c8828661323c565b6020820191506132d88285613284565b6014820191506132e882846132a5565b602082019150819050949350505050565b7f5369676e617475726520616c7265616479207573656400000000000000000000600082015250565b600061332f601683612699565b915061333a826132f9565b602082019050919050565b6000602082019050818103600083015261335e81613322565b9050919050565b600081905092915050565b7f19457468657265756d205369676e6564204d6573736167653a0a333200000000600082015250565b60006133a6601c83613365565b91506133b182613370565b601c82019050919050565b60006133c782613399565b91506133d382846132a5565b60208201915081905092915050565b7f496e76616c6964207369676e6174757265000000000000000000000000000000600082015250565b6000613418601183612699565b9150613423826133e2565b602082019050919050565b600060208201905081810360008301526134478161340b565b9050919050565b60006134598261268e565b6134638185613365565b93506134738185602086016126aa565b80840191505092915050565b600061348b828561344e565b9150613497828461344e565b91508190509392505050565b7f596f752063616e2774206d696e742073657420286c696d69742065786365656460008201527f6564292e00000000000000000000000000000000000000000000000000000000602082015250565b60006134ff602483612699565b915061350a826134a3565b604082019050919050565b6000602082019050818103600083015261352e816134f2565b9050919050565b7f496e636f7272656374207061796d656e7420616d6f756e740000000000000000600082015250565b600061356b601883612699565b915061357682613535565b602082019050919050565b6000602082019050818103600083015261359a8161355e565b9050919050565b60006135ac82612740565b91506135b783612740565b92508282039050818111156135cf576135ce6130b5565b5b92915050565b7f4e487b7100000000000000000000000000000000000000000000000000000000600052603260045260246000fd5b600061360f82612740565b91507fffffffffffffffffffffffffffffffffffffffffffffffffffffffffffffffff8203613641576136406130b5565b5b600182019050919050565b600060069050919050565b600081905092915050565b6000819050919050565b61367581612740565b82525050565b6000613687838361366c565b60208301905092915050565b6000602082019050919050565b6136a98161364c565b6136b38184613657565b92506136be82613662565b8060005b838110156136ef5781516136d6878261367b565b96506136e183613693565b9250506001810190506136c2565b505050505050565b600060c08201905061370c60008301846136a0565b92915050565b7f4f776e61626c653a206e6577206f776e657220697320746865207a65726f206160008201527f6464726573730000000000000000000000000000000000000000000000000000602082015250565b600061376e602683612699565b915061377982613712565b604082019050919050565b6000602082019050818103600083015261379d81613761565b9050919050565b7f4552433732313a207472616e736665722066726f6d20696e636f72726563742060008201527f6f776e6572000000000000000000000000000000000000000000000000000000602082015250565b6000613800602583612699565b915061380b826137a4565b604082019050919050565b6000602082019050818103600083015261382f816137f3565b9050919050565b7f4552433732313a207472616e7366657220746f20746865207a65726f2061646460008201527f7265737300000000000000000000000000000000000000000000000000000000602082015250565b6000613892602483612699565b915061389d82613836565b604082019050919050565b600060208201905081810360008301526138c181613885565b9050919050565b7f4f776e61626c653a2063616c6c6572206973206e6f7420746865206f776e6572600082015250565b60006138fe602083612699565b9150613909826138c8565b602082019050919050565b6000602082019050818103600083015261392d816138f1565b9050919050565b7f4d617820737570706c792065786365656465642e000000000000000000000000600082015250565b600061396a601483612699565b915061397582613934565b602082019050919050565b600060208201905081810360008301526139998161395d565b9050919050565b7f4552433732313a20617070726f766520746f2063616c6c657200000000000000600082015250565b60006139d6601983612699565b91506139e1826139a0565b602082019050919050565b60006020820190508181036000830152613a05816139c9565b9050919050565b7f4552433732313a207472616e7366657220746f206e6f6e20455243373231526560008201527f63656976657220696d706c656d656e7465720000000000000000000000000000602082015250565b6000613a68603283612699565b9150613a7382613a0c565b604082019050919050565b60006020820190508181036000830152613a9781613a5b565b9050919050565b7f4e487b7100000000000000000000000000000000000000000000000000000000600052601260045260246000fd5b7f4e487b7100000000000000000000000000000000000000000000000000000000600052602160045260246000fd5b7f45434453413a20696e76616c6964207369676e61747572650000000000000000600082015250565b6000613b32601883612699565b9150613b3d82613afc565b602082019050919050565b60006020820190508181036000830152613b6181613b25565b9050919050565b7f45434453413a20696e76616c6964207369676e6174757265206c656e67746800600082015250565b6000613b9e601f83612699565b9150613ba982613b68565b602082019050919050565b60006020820190508181036000830152613bcd81613b91565b9050919050565b7f45434453413a20696e76616c6964207369676e6174757265202773272076616c60008201527f7565000000000000000000000000000000000000000000000000000000000000602082015250565b6000613c30602283612699565b9150613c3b82613bd4565b604082019050919050565b60006020820190508181036000830152613c5f81613c23565b9050919050565b600081519050919050565b600082825260208201905092915050565b6000613c8d82613c66565b613c978185613c71565b9350613ca78185602086016126aa565b613cb0816126d4565b840191505092915050565b6000608082019050613cd060008301876127d5565b613cdd60208301866127d5565b613cea604083018561286b565b8181036060830152613cfc8184613c82565b905095945050505050565b600081519050613d16816125ff565b92915050565b600060208284031215613d3257613d316125c9565b5b6000613d4084828501613d07565b91505092915050565b613d52816129e6565b82525050565b600060ff82169050919050565b613d6e81613d58565b82525050565b6000608082019050613d896000830187613d49565b613d966020830186613d65565b613da36040830185613d49565b613db06060830184613d49565b95945050505050565b7f4552433732313a206d696e7420746f20746865207a65726f2061646472657373600082015250565b6000613def602083612699565b9150613dfa82613db9565b602082019050919050565b60006020820190508181036000830152613e1e81613de2565b9050919050565b7f4552433732313a20746f6b656e20616c7265616479206d696e74656400000000600082015250565b6000613e5b601c83612699565b9150613e6682613e25565b602082019050919050565b60006020820190508181036000830152613e8a81613e4e565b905091905056fea264697066735822122034f36e4d36d06fb5a6eefe8c7d2b5669a238bf28d61fd058ec102be786ffa32364736f6c63430008180033",
  "linkReferences": {},
  "deployedLinkReferences": {}
}